{
  "_format": "hh-sol-artifact-1",
  "contractName": "IBDevTaskPart2",
  "sourceName": "contracts/parttwo.sol",
  "abi": [
    {
      "inputs": [
        {
          "internalType": "bytes",
          "name": "_publicKey",
          "type": "bytes"
        }
      ],
      "stateMutability": "nonpayable",
      "type": "constructor"
    },
    {
      "anonymous": false,
      "inputs": [
        {
          "indexed": false,
          "internalType": "string",
          "name": "data",
          "type": "string"
        },
        {
          "indexed": false,
          "internalType": "address",
          "name": "sender",
          "type": "address"
        },
        {
          "indexed": false,
          "internalType": "address",
          "name": "origin",
          "type": "address"
        }
      ],
      "name": "Task",
      "type": "event"
    },
    {
      "inputs": [],
      "name": "publicKey",
      "outputs": [
        {
          "internalType": "bytes",
          "name": "",
          "type": "bytes"
        }
      ],
      "stateMutability": "view",
      "type": "function"
    },
    {
      "inputs": [
        {
          "internalType": "string",
          "name": "data",
          "type": "string"
        }
      ],
      "name": "sendTask",
      "outputs": [],
      "stateMutability": "nonpayable",
      "type": "function"
    }
  ],
  "bytecode": "0x60806040523480156200001157600080fd5b5060405162000a6638038062000a668339818101604052810190620000379190620001e3565b80600090816200004891906200047f565b505062000566565b6000604051905090565b600080fd5b600080fd5b600080fd5b600080fd5b6000601f19601f8301169050919050565b7f4e487b7100000000000000000000000000000000000000000000000000000000600052604160045260246000fd5b620000b9826200006e565b810181811067ffffffffffffffff82111715620000db57620000da6200007f565b5b80604052505050565b6000620000f062000050565b9050620000fe8282620000ae565b919050565b600067ffffffffffffffff8211156200012157620001206200007f565b5b6200012c826200006e565b9050602081019050919050565b60005b83811015620001595780820151818401526020810190506200013c565b60008484015250505050565b60006200017c620001768462000103565b620000e4565b9050828152602081018484840111156200019b576200019a62000069565b5b620001a884828562000139565b509392505050565b600082601f830112620001c857620001c762000064565b5b8151620001da84826020860162000165565b91505092915050565b600060208284031215620001fc57620001fb6200005a565b5b600082015167ffffffffffffffff8111156200021d576200021c6200005f565b5b6200022b84828501620001b0565b91505092915050565b600081519050919050565b7f4e487b7100000000000000000000000000000000000000000000000000000000600052602260045260246000fd5b600060028204905060018216806200028757607f821691505b6020821081036200029d576200029c6200023f565b5b50919050565b60008190508160005260206000209050919050565b60006020601f8301049050919050565b600082821b905092915050565b600060088302620003077fffffffffffffffffffffffffffffffffffffffffffffffffffffffffffffffff82620002c8565b620003138683620002c8565b95508019841693508086168417925050509392505050565b6000819050919050565b6000819050919050565b6000620003606200035a62000354846200032b565b62000335565b6200032b565b9050919050565b6000819050919050565b6200037c836200033f565b620003946200038b8262000367565b848454620002d5565b825550505050565b600090565b620003ab6200039c565b620003b881848462000371565b505050565b5b81811015620003e057620003d4600082620003a1565b600181019050620003be565b5050565b601f8211156200042f57620003f981620002a3565b6200040484620002b8565b8101602085101562000414578190505b6200042c6200042385620002b8565b830182620003bd565b50505b505050565b600082821c905092915050565b6000620004546000198460080262000434565b1980831691505092915050565b60006200046f838362000441565b9150826002028217905092915050565b6200048a8262000234565b67ffffffffffffffff811115620004a657620004a56200007f565b5b620004b282546200026e565b620004bf828285620003e4565b600060209050601f831160018114620004f75760008415620004e2578287015190505b620004ee858262000461565b8655506200055e565b601f1984166200050786620002a3565b60005b8281101562000531578489015182556001820191506020850194506020810190506200050a565b868310156200055157848901516200054d601f89168262000441565b8355505b6001600288020188555050505b505050505050565b6104f080620005766000396000f3fe608060405234801561001057600080fd5b50600436106100365760003560e01c806363ffab311461003b578063b779808414610059575b600080fd5b610043610075565b6040516100509190610242565b60405180910390f35b610073600480360381019061006e91906102d3565b610103565b005b600080546100829061034f565b80601f01602080910402602001604051908101604052809291908181526020018280546100ae9061034f565b80156100fb5780601f106100d0576101008083540402835291602001916100fb565b820191906000526020600020905b8154815290600101906020018083116100de57829003601f168201915b505050505081565b3273ffffffffffffffffffffffffffffffffffffffff163373ffffffffffffffffffffffffffffffffffffffff1603610171576040517f08c379a0000000000000000000000000000000000000000000000000000000008152600401610168906103dd565b60405180910390fd5b7fa49627075445d806b9396f8a0c5b708827c8624f4c78bbfd0425d4dbad60566a828233326040516101a6949392919061047a565b60405180910390a15050565b600081519050919050565b600082825260208201905092915050565b60005b838110156101ec5780820151818401526020810190506101d1565b60008484015250505050565b6000601f19601f8301169050919050565b6000610214826101b2565b61021e81856101bd565b935061022e8185602086016101ce565b610237816101f8565b840191505092915050565b6000602082019050818103600083015261025c8184610209565b905092915050565b600080fd5b600080fd5b600080fd5b600080fd5b600080fd5b60008083601f8401126102935761029261026e565b5b8235905067ffffffffffffffff8111156102b0576102af610273565b5b6020830191508360018202830111156102cc576102cb610278565b5b9250929050565b600080602083850312156102ea576102e9610264565b5b600083013567ffffffffffffffff81111561030857610307610269565b5b6103148582860161027d565b92509250509250929050565b7f4e487b7100000000000000000000000000000000000000000000000000000000600052602260045260246000fd5b6000600282049050600182168061036757607f821691505b60208210810361037a57610379610320565b5b50919050565b600082825260208201905092915050565b7f4d7573742063616c6c2066726f6d206120736d61727420636f6e747261637421600082015250565b60006103c7602083610380565b91506103d282610391565b602082019050919050565b600060208201905081810360008301526103f6816103ba565b9050919050565b82818337600083830152505050565b60006104188385610380565b93506104258385846103fd565b61042e836101f8565b840190509392505050565b600073ffffffffffffffffffffffffffffffffffffffff82169050919050565b600061046482610439565b9050919050565b61047481610459565b82525050565b6000606082019050818103600083015261049581868861040c565b90506104a4602083018561046b565b6104b1604083018461046b565b9594505050505056fea2646970667358221220332e509021c7914afd18fe0ecafac78de047fc03a723cc5fcb647267df939cc364736f6c63430008110033",
  "linkReferences": {},
  "deployedLinkReferences": {}
}