{
  "_format": "hh-sol-artifact-1",
  "contractName": "Parttwo",
  "sourceName": "contracts/parttwo.sol",
  "abi": [
    {
      "inputs": [
        {
          "internalType": "contract IBDevTaskPart2",
          "name": "part2",
          "type": "address"
        },
        {
          "internalType": "string",
          "name": "_data",
          "type": "string"
        }
      ],
      "name": "send",
      "outputs": [],
      "stateMutability": "nonpayable",
      "type": "function"
    }
  ],
  "bytecode": "0x608060405234801561001057600080fd5b506102b5806100206000396000f3fe608060405234801561001057600080fd5b506004361061002b5760003560e01c806399142b5f14610030575b600080fd5b61004a6004803603810190610045919061019d565b61004c565b005b8273ffffffffffffffffffffffffffffffffffffffff1663b779808483836040518363ffffffff1660e01b815260040161008792919061025b565b600060405180830381600087803b1580156100a157600080fd5b505af11580156100b5573d6000803e3d6000fd5b50505050505050565b600080fd5b600080fd5b600073ffffffffffffffffffffffffffffffffffffffff82169050919050565b60006100f3826100c8565b9050919050565b6000610105826100e8565b9050919050565b610115816100fa565b811461012057600080fd5b50565b6000813590506101328161010c565b92915050565b600080fd5b600080fd5b600080fd5b60008083601f84011261015d5761015c610138565b5b8235905067ffffffffffffffff81111561017a5761017961013d565b5b60208301915083600182028301111561019657610195610142565b5b9250929050565b6000806000604084860312156101b6576101b56100be565b5b60006101c486828701610123565b935050602084013567ffffffffffffffff8111156101e5576101e46100c3565b5b6101f186828701610147565b92509250509250925092565b600082825260208201905092915050565b82818337600083830152505050565b6000601f19601f8301169050919050565b600061023a83856101fd565b935061024783858461020e565b6102508361021d565b840190509392505050565b6000602082019050818103600083015261027681848661022e565b9050939250505056fea264697066735822122047f5174429297cd65f3f0a3b0add6f8de39b537d99585a11192532e369d42f4964736f6c63430008110033",
  "linkReferences": {},
  "deployedLinkReferences": {}
}